:100000000C9462000C948A000C948A000C948A0070
:100010000C948A000C948A000C948A000C948A0038
:100020000C948A000C948A000C948A000C948A0028
:100030000C948A000C948A000C948A000C948A0018
:100040000C94A2050C948A000C948A000C948A00EB
:100050000C948A000C948A000C948A000C948A00F8
:100060000C94EC050C948A0000000000240027008A
:100070002A0000000000250028002B0000000008D6
:10008000000201000003040700000000000000005F
:1000900000000000230026002900040404040404D6
:1000A0000404020202020202030303030303010227
:1000B00004081020408001020408102001020408F6
:1000C00010201A0711241FBECFEFD8E0DEBFCDBF2E
:1000D00011E0A0E0B1E0E0EBF7E102C005900D9285
:1000E000A238B107D9F723E0A2E8B1E001C01D9220
:1000F000AD36B207E1F710E0C2E6D0E004C02197C8
:10010000FE010E94CB0BC136D107C9F70E945907E7
:100110000C94D60B0C9400008F929F92AF92BF92DA
:10012000CF92DF92EF92FF92CF93DF93A09156038D
:10013000882311F03A2F01C030E08091570390E0FE
:10014000880F991F80579F4FC0905C03D0905D032C
:10015000E0905E03F0905F0340E050E0BA01FC01E4
:10016000C591D49128812A2323130FC04A015B0132
:100170002FEF821A920AA20AB20A4C155D056E058B
:100180007F0538F4B501A401EACF342F252FCB0128
:1001900004C030E020E080E090E0632F722FDF9118
:1001A000CF91FF90EF90DF90CF90BF90AF909F9056
:1001B0008F90089590E0FC01E458FF4F3491FC01CA
:1001C000E255FF4F2491FC01E656FF4FE491EE23E8
:1001D00009F43BC0332339F1333091F038F4313036
:1001E000A9F0323001F584B58F7D12C0373091F01F
:1001F0003830A1F03430B9F4809180008F7D03C095
:10020000809180008F77809380000DC084B58F77B8
:1002100084BD09C08091B0008F7703C08091B00089
:100220008F7D8093B000F0E0EE0FFF1FEE58FF4F80
:10023000A591B4918FB7F894EC91611103C020950A
:100240002E2301C02E2B2C938FBF0895CF93DF93C5
:1002500090E0FC01E255FF4F2491FC01E656FF4F70
:100260008491882361F190E0880F991FFC01E8597F
:10027000FF4FC591D491FC01EE58FF4FA591B49169
:10028000611109C09FB7F8948881209582238883E3
:10029000EC912E230BC0623061F49FB7F894388143
:1002A000822F809583238883EC912E2B2C939FBFE4
:1002B00006C08FB7F894E8812E2B28838FBFDF917B
:1002C000CF9108953FB7F89480913B0390913C0300
:1002D000A0913D03B0913E0326B5A89B05C02F3FDA
:1002E00019F00196A11DB11D3FBFBA2FA92F982F5C
:1002F0008827820F911DA11DB11DBC01CD0142E0D7
:10030000660F771F881F991F4A95D1F708958F921E
:100310009F92AF92BF92CF92DF92EF92FF926B01CA
:100320007C010E9462014B015C01C114D104E10413
:10033000F104F1F00E946201DC01CB0188199909F6
:10034000AA09BB09883E9340A105B10570F321E0DD
:10035000C21AD108E108F10888EE880E83E0981EE1
:10036000A11CB11CC114D104E104F10419F7DDCFC3
:10037000FF90EF90DF90CF90BF90AF909F908F90C5
:100380000895CF92DF92EF92FF920F931F93CF9336
:10039000DF93CDB7DEB7C054D1400FB6F894DEBFBF
:1003A0000FBECDBF2FB7F89480913F0390914003CB
:1003B000A0914103B09142032FBF40915803509147
:1003C000590360915A0370915B038C019D01041BDA
:1003D000150B260B370BB901A801403D57406105AD
:1003E000710518F480916003BCC08093580390930A
:1003F0005903A0935A03B0935B03109253031092D6
:100400005203109251031092500310924F0361E077
:10041000809154030E94DA006AEF70E080E090E07F
:100420000E94870161E0809154030E94260160E0F0
:10043000809154030E94DA0064E170E080E090E073
:100440000E948701F89461E0809154030E94DA00D1
:100450008BE990E00197F1F762E0809154030E94EC
:10046000260183E290E00197F1F780E00E948C0082
:10047000672B682B692B21F41092600378943EC09F
:1004800081E00E948C00672B682B692BA9F38E01F9
:100490000F5F1F4F6E012FEBC21A2EEFD20A7801A9
:1004A00080E00E948C00F7016083718382839383D4
:1004B00081E00E948C00F7016483758386839783B3
:1004C000F8E0EF0EF11CEC14FD0451F7789420E0F5
:1004D00030E0F8014081518162817381C480D58010
:1004E000E680F780411551056105710529F0C114B9
:1004F000D104E104F10421F41092600380E031C0E2
:10050000F90183E0F595E7958A95E1F7E15BFC4F0A
:100510008081880F4C155D056E057F0508F48160AC
:1005200080832F5F3F4F085F1F4F2832310589F6C8
:100530002091530330E040914F038091500390E0AD
:10054000840F911D40915103840F911D40915203DE
:10055000840F911D99272817390771F681E0809340
:100560006003C05CDE4F0FB6F894DEBF0FBECDBF98
:10057000DF91CF911F910F91FF90EF90DF90CF907F
:100580000895CF92DF92EF92FF920F931F93CF9334
:10059000DF936C017A018B01C0E0D0E0CE15DF055E
:1005A00089F0D8016D918D01D601ED91FC910190FA
:1005B000F081E02DC6010995892B11F47E0102C05E
:1005C0002196ECCFC701DF91CF911F910F91FF9042
:1005D000EF90DF90CF900895089581E090E0309102
:1005E000150220911402321710F480E090E09195EA
:1005F00081959109089580911502909114028917AF
:1006000030F48F5F8093150280E090E008958FEFC3
:100610009FEF08958091140290E020911502821BB3
:1006200091090895089580E090E0089585ED809304
:10063000BC008091BC0084FDFCCF10921102089593
:100640004091A401262F30E0240F311D21323105C5
:10065000DCF4209111022430C9F4FC0180E090E028
:10066000861758F43091A4012191DC01AE57BE4F9A
:10067000A30FB11D2C930196F3CF8091A401680FB5
:100680006093A40180E0089581E0089582E00895D8
:10069000CF92DF92EF92FF920F931F93CF93DF934E
:1006A0007C01262F972F8A018091ED01882391F0FC
:1006B000C62FD72F6E01C40ED51ECC15DD0571F0E7
:1006C0006991D701ED91FC910190F081E02DC70176
:1006D0000995F3CF642F822F0E942003C801DF9178
:1006E000CF911F910F91FF90EF90DF90CF900895E1
:1006F000CF93DF931F92CDB7DEB769832091ED01D1
:100700002223D1F020911202203240F021E030E08B
:10071000FC013383228380E090E015C080911302B6
:10072000E82FF0E0E251FE4F998190838F5F809334
:1007300013028093120205C061E0CE0101960E946F
:10074000200381E090E00F90DF91CF910895CF9347
:10075000FC01C48121E02093ED01C0930E021092B0
:100760001302109212028385682B83E493E00E94A7
:10077000780380911202813208F046C090911102F4
:100780009111FCCF92E09093110291E090931002AE
:100790009FEF9093EC011092EB018093EA01AEEE93
:1007A000B1E02AEC31E0F9019E2F921B981718F462
:1007B0009D919193F9CF1092C9018091C901CC0FFD
:1007C000C82BC093C90180910F02813061F410924F
:1007D0000F028091C9018093BB008091BC0083FD12
:1007E000F8CF85EC01C085EE8093BC0080911102AA
:1007F0008230E1F38091EC018F3F31F08091EC0188
:10080000803211F08091EC011092130210921202CA
:100810001092ED01CF9108950F931F93CF938C0108
:10082000C62F0E94A7036C2F6460C8010E94A70313
:100830006C2F6B7FC8010E94A70383EC90E00197A7
:10084000F1F7CF911F910F910895FF920F931F938E
:10085000CF93DF931F92CDB7DEB78C01F62E962F84
:10086000907F692F642BC80149830E940C0480E1AA
:10087000F89EB00111244981642BC8010F90DF91CB
:10088000CF911F910F91FF900C940C04CF93DF93A5
:10089000CDB7DEB728970FB6F894DEBF0FBECDBF39
:1008A00028E0E6E0F1E0DE01119601900D922A9534
:1008B000E1F720916903261710F46FEF620FFE0134
:1008C0003196E60FF11DE60FF11D9081682F690F3B
:1008D000606840E081E693E028960FB6F894DEBFAA
:1008E0000FBECDBFDF91CF910C94250440E061E0B5
:1008F00081E693E00E9425048BE39FE10197F1F7E5
:100900000895CF93DF93823028F09091660398602A
:1009100090936603809369038BE39DE00197F1F761
:1009200060916C0381E693E00E94A70368EE73E098
:1009300080E090E00E94870163E081E693E00E94FE
:100940000C04CBE4D6E4CE010197F1F763E081E635
:1009500093E00E940C042197F1F763E081E693E0B5
:100960000E940C0483E592E00197F1F762E081E6D2
:1009700093E00E940C0460916603606240E081E6AF
:1009800093E00E94250484E08093670340E06CE0DC
:1009900081E693E00E9425040E94760482E0809321
:1009A000680340E066E081E693E00E94250440E0B1
:1009B00062E081E693E0DF91CF910C94250441E061
:1009C0000E94250481E090E00895FC01AC01405AAA
:1009D0005F4F60E070E080E090E0219131912C3930
:1009E000AFEF3A0721F0820F931F6F5F7F4FE4173D
:1009F000F50799F76115710521F00E94810BCB0174
:100A000008958FEF9FEF08959C01205A3F4F4CE9C6
:100A10005FEFFC0141935193CF01E217F307C9F750
:100A20000895009769F0FC0101900020E9F73197E3
:100A3000AF01481B590BBC0181E693E00C94C10245
:100A400080E090E008950C9411058F929F92AF92F0
:100A5000BF92CF92DF92EF92FF920F931F93CF93AB
:100A6000DF93CDB7DEB7A1970FB6F894DEBF0FBE08
:100A7000CDBF6C01990FEE08FF08F7FE31C0E09181
:100A80006103F09162030190F081E02D6DE281E657
:100A900093E009958C0122273327A9012C193D09E0
:100AA0004E095F0919A2CE0181967C019AE0892E38
:100AB000912CA12CB12CCA01B901A50194010E946D
:100AC000950B605DF70162937F01211531054105AA
:100AD000510589F7CF010E941105800F911F1DC09C
:100AE000A701960119A28E010F5D1F4F8AE0C82E43
:100AF000D12CE12CF12CCA01B901A70196010E9469
:100B0000950B605DF80162938F0121153105410558
:100B1000510589F7CF010E941105A1960FB6F894EF
:100B2000DEBF0FBECDBFDF91CF911F910F91FF9020
:100B3000EF90DF90CF90BF90AF909F908F900895EF
:100B40000E94D10B1F920F920FB60F9211242F9378
:100B50003F938F939F93AF93BF9380913F03909167
:100B60004003A0914103B091420330913A0323E046
:100B7000230F2D3720F40196A11DB11D05C026E8D5
:100B8000230F0296A11DB11D20933A0380933F03CA
:100B900090934003A0934103B093420380913B03A1
:100BA00090913C03A0913D03B0913E030196A11D9D
:100BB000B11D80933B0390933C03A0933D03B093FE
:100BC0003E03BF91AF919F918F913F912F910F90D5
:100BD0000FBE0F901F9018951F920F920FB60F9295
:100BE00011242F933F934F935F936F937F938F9332
:100BF0009F93AF93BF93EF93FF938091B900887F4A
:100C0000803609F49CC068F5883209F45BC090F422
:100C1000803109F454C038F4882309F4F6C08830D0
:100C200009F44DC0F6C0883109F44CC0803209F493
:100C30005DC0EFC0803409F468C048F4803309F423
:100C400055C0883309F0E5C08093EC01D8C08035E9
:100C500009F44FC0883509F45DC0883409F0D9C063
:100C6000D6C0883909F4C7C0A8F4883709F467C02A
:100C700038F4883609F463C0803709F460C0C9C00D
:100C8000883809F4B8C0803909F45FC0803809F0A9
:100C9000C0C05BC0803B09F486C038F4803A09F4D8
:100CA00066C0883A09F47FC0B4C0803C09F4A7C08C
:100CB000883C09F4A4C0883B09F48AC0AAC080918A
:100CC000C90110C09091EB018091EA01981770F56D
:100CD000E091EB0181E08E0F8093EB01F0E0E653B1
:100CE000FE4F80818093BB0085EC86C08093EC0131
:100CF0008EC0E091EB0181E08E0F8093EB0180913B
:100D0000BB00F0E0E653FE4F80839091EB018091B1
:100D1000EA016EC0E091EB0181E08E0F8093EB0160
:100D20008091BB00F0E0E653FE4F8083809110027B
:100D300081116DC081E080930F0284EA61C083E07D
:100D4000809311021092C801CFCF8091C8018032E8
:100D500008F051C0E091C80181E08E0F8093C80176
:100D60008091BB00F0E0E855FE4F8083BDCF85EC5D
:100D70008093BC00109211028091C801803230F43F
:100D8000E091C801F0E0E855FE4F10826091C80183
:100D900070E0E091A601F091A70188EA91E0099541
:100DA0001092C80136C084E0809311021092A50110
:100DB0001092A401E091A201F091A3010995809104
:100DC000A401811105C081E08093A40110928201E9
:100DD000E091A50181E08E0F8093A501F0E0EE5730
:100DE000FE4F80818093BB009091A5018091A4016A
:100DF000981708F479CF85E88093BC000AC085EC89
:100E00008093BC001092110204C01092EC010E9469
:100E10001603FF91EF91BF91AF919F918F917F91B9
:100E20006F915F914F913F912F910F900FBE0F9057
:100E30001F901895E3E4F3E01382128288EE93E0AA
:100E4000A0E0B0E084839583A683B78382E191E03C
:100E500091838083E1E6F3E01382128284E291E0E1
:100E6000918380838FE3848380E1818782E082871E
:100E70001386AFE4B3E015968C93159786E116962A
:100E80008C931697E0EBF0E0E4911796EC931797AC
:100E9000ECE9F0E0E4911896EC93189740E85EE3F3
:100EA00060E070E01D964D935D936D937C93509739
:100EB0000895789484B5826084BD84B5816084BDD2
:100EC00085B5826085BD85B5816085BD80916E00E8
:100ED000816080936E001092810080918100826019
:100EE0008093810080918100816080938100809156
:100EF00080008160809380008091B1008460809345
:100F0000B1008091B00081608093B00080917A0040
:100F1000846080937A0080917A00826080937A0066
:100F200080917A00816080937A0080917A00806855
:100F300080937A001092C10060E082E00E94260156
:100F400010921502109214021092130210921202C3
:100F50001092110281E08093100210920F0261E062
:100F600082E10E94DA0061E083E10E94DA00809170
:100F7000B9008E7F8093B9008091B9008D7F8093F6
:100F8000B90088E48093B80085E48093BC00109297
:100F9000660380916B030E94810482E00E948104B9
:100FA00088E080936C0360E081E693E00E94A703F1
:100FB0000E94760460E080E00E9446048CE291E0AA
:100FC0000E94230561E080E00E9446048BE391E0EB
:100FD0000E94230562E0809154030E94260180E371
:100FE00098EFAFEFBFEF8093580390935903A0930E
:100FF0005A03B0935B0368EE73E080E090E00E94D8
:10100000870161E080E00E94460486E491E00E944E
:10101000230568EE73E080E090E00E94870161E0C4
:1010200080E00E94460485E591E00E94230586E762
:1010300092E00E94040568EE73E080E090E00E9478
:10104000870161E080E00E94460483E691E00E940F
:10105000230586E192E00E94040568EE73E080E0DB
:1010600090E00E94870161E080E00E94460481E7F1
:1010700091E00E94230586ED92E00E94040530E491
:10108000D32E08E017E040E0E42E40E0F42E8091FB
:10109000380390913903883027E0920731F00097A8
:1010A00021F083709927892B11F40E947604D09245
:1010B0007C0080917A00806480937A0080917A002D
:1010C00086FDFCCFC091780080917900D0E0D82BCC
:1010D00060E080E00E944604CE010E9425058091D8
:1010E000380390913903883037E0930711F0892B4A
:1010F00091F4E0913603F0913703EE0FFF1FEA52AF
:10110000FD4FD183C08386ED92E00E94E504909369
:1011100005018093040161E080E00E944604809113
:101120000401909105010E9425050E94C1018823B8
:10113000D1F1809155038B3029F0A8F1855182308F
:1011400048F031C06091510370E080E090E00E946F
:10115000860A2DC0C09151036C2F6F7770E080E03C
:1011600090E00E94880A20E030E040E853E40E94CA
:10117000140B4B015C0180915203682F70E080E0FA
:1011800090E00E94880A9B01AC01C501B4010E9455
:10119000E4092DEC3CEC4CEC5DE30E94140BC7FF22
:1011A00006C0905804C060E070E080EC9FE70E94A9
:1011B000500A4B015C0160E084E00E944604C401D7
:1011C0000E9425058091380390913903883027E0EB
:1011D000920711F0892B91F4E0913603F0913703D7
:1011E000EE0FFF1FEA58FD4F9182808286E792E062
:1011F0000E94E504909303018093020161E084E082
:101200000E94460480910201909103010E942505ED
:101210000E94C1018823A1F1809155038B3041F1D7
:1012200078F18551823060F560914F0370E080E085
:1012300090E00E94860A20E030E040E853E40E94FB
:10124000140B4B015C0180915003682F70E080E02B
:1012500090E00E94880A9B01AC01C501B4010E9484
:10126000E4092DEC3CEC4CEC5DE30E94140B0CC04B
:1012700060914F0370E080E090E00E94860A04C015
:1012800060E070E080EC9FE70E94500A4B015C0137
:1012900060E087E00E944604C4010E942505809119
:1012A000380390913903883037E0930711F0892B88
:1012B00091F4E0913603F0913703EE0FFF1FEA5EE1
:1012C000FD4F9182808286E192E00E94E504909336
:1012D00001018093000161E087E00E944604809153
:1012E0000001909101010E94250560E08AE00E94C2
:1012F000460480913803909139039801281B390BDB
:10130000C9010E94250580913603909137038033EF
:10131000910534F40196909337038093360304C00B
:10132000109237031092360380913803909139035D
:10133000883037E0930729F410923903109238036C
:1013400005C00196909339038093380360E083E0F1
:101350000E9446048FE791E00E94230560E086E04A
:101360000E9446048FE791E00E94230560E089E037
:101370000E9446048FE791E00E94230561E083E02C
:101380000E9446048FE791E00E94230561E086E019
:101390000E9446048FE791E00E94230561E089E006
:1013A0000E9446048FE791E00E94230568EE73E0F7
:1013B00080E090E00E948701E114F10409F467CE17
:1013C0000E94000064CE5058BB27AA270E94FB0948
:1013D0000C94DA0A0E94CC0A38F00E94D30A20F05A
:1013E00039F49F3F19F426F40C94C90A0EF4E095E1
:1013F000E7FB0C94C30AE92F0E94EB0A58F3BA17D3
:10140000620773078407950720F079F4A6F50C941A
:101410000D0B0EF4E0950B2EBA2FA02D0B01B90188
:1014200090010C01CA01A0011124FF27591B99F05A
:10143000593F50F4503E68F11A16F040A22F232F66
:10144000342F4427585FF3CF469537952795A795B6
:10145000F0405395C9F77EF41F16BA0B620B730B5D
:10146000840BBAF09150A1F0FF0FBB1F661F771FCE
:10147000881FC2F70EC0BA0F621F731F841F48F483
:10148000879577956795B795F7959E3F08F0B0CF0C
:101490009395880F08F09927EE0F979587950895F3
:1014A0000E94570A6894B1110C940E0B08950E9483
:1014B000F30A88F09F5798F0B92F9927B751B0F0E9
:1014C000E1F0660F771F881F991F1AF0BA95C9F7C8
:1014D00014C0B13091F00E940D0BB1E008950C944E
:1014E0000D0B672F782F8827B85F39F0B93FCCF301
:1014F000869577956795B395D9F73EF49095809545
:10150000709561957F4F8F4F9F4F0895E89409C064
:1015100097FB3EF490958095709561957F4F8F4F26
:101520009F4F9923A9F0F92F96E9BB279395F6953C
:10153000879577956795B795F111F8CFFAF4BB0FBA
:1015400011F460FF1BC06F5F7F4F8F4F9F4F16C01E
:10155000882311F096E911C0772321F09EE8872FA8
:10156000762F05C0662371F096E8862F70E060E064
:101570002AF09A95660F771F881FDAF7880F9695DD
:10158000879597F9089597F99F6780E870E060E084
:1015900008959FEF80EC089500240A94161617060C
:1015A00018060906089500240A9412161306140654
:1015B00005060895092E0394000C11F4882352F0B7
:1015C000BB0F40F4BF2B11F460FF04C06F5F7F4F6F
:1015D0008F4F9F4F089557FD9058440F551F59F056
:1015E0005F3F71F04795880F97FB991F61F09F3F10
:1015F00079F087950895121613061406551FF2CF39
:101600004695F1DF08C0161617061806991FF1CF88
:1016100086957105610508940895E894BB276627AF
:101620007727CB0197F908950E94270B0C94DA0ACB
:101630000E94CC0A38F00E94D30A20F0952311F0C2
:101640000C94C30A0C94C90A11240C940E0B0E942A
:10165000EB0A70F3959FC1F3950F50E0551F629F01
:10166000F001729FBB27F00DB11D639FAA27F00DFB
:10167000B11DAA1F649F6627B00DA11D661F829F22
:101680002227B00DA11D621F739FB00DA11D621F07
:10169000839FA00D611D221F749F3327A00D611D24
:1016A000231F849F600D211D822F762F6A2F112406
:1016B0009F5750409AF0F1F088234AF0EE0FFF1F39
:1016C000BB1F661F771F881F91505040A9F79E3F90
:1016D000510580F00C94C30A0C940E0B5F3FE4F3A9
:1016E000983ED4F3869577956795B795F795E795E6
:1016F0009F5FC1F7FE2B880F911D9695879597F9EF
:10170000089597FB072E16F4009407D077FD09D0B3
:101710000E94B70B07FC05D03EF4909581959F4F32
:101720000895709561957F4F0895A1E21A2EAA1B26
:10173000BB1BFD010DC0AA1FBB1FEE1FFF1FA21781
:10174000B307E407F50720F0A21BB30BE40BF50B7E
:10175000661F771F881F991F1A9469F76095709507
:10176000809590959B01AC01BD01CF010895AA1B06
:10177000BB1B51E107C0AA1FBB1FA617B70710F07C
:10178000A61BB70B881F991F5A95A9F780959095AE
:10179000BC01CD010895EE0FFF1F0590F491E02DDF
:1017A000099481E090E0F8940C94D60BF894FFCF64
:1017B000FFFFFFFFFFFF0000400014005400000087
:1017C0000000780348031303EC020A03FB02ED0256
:1017D00000000000DF04C1021303120354484C2030
:1017E0002D207374617274696E6700696E6974206C
:1017F000444854323200696E6974206172726179B2
:10180000732E2E2E00696E697420746D702E206107
:10181000727200696E69742068756D2E2061727233
:1018200000696E6974206C67682E20617272007C9A
:021830000000B6
:00000001FF
