:100000000C945D000C9485000C9485000C94850084
:100010000C9485000C9485000C9485000C9485004C
:100020000C9485000C9485000C9485000C9485003C
:100030000C9485000C9485000C9485000C9485002C
:100040000C940D040C9485000C9485000C94850090
:100050000C9485000C9485000C9485000C9485000C
:100060000C9457040C948500000000002400270025
:100070002A0000000000250028002B0000000008D6
:10008000000201000003040700000000000000005F
:10009000040404040404040402020202020203032E
:1000A0000303030301020408102040800102040836
:1000B0001020010204081020850511241FBECFEF77
:1000C000D8E0DEBFCDBF11E0A0E0B1E0E6EEF1E1A7
:1000D00002C005900D92A638B107D9F723E0A6E833
:1000E000B1E001C01D92A137B207E1F710E0CDE504
:1000F000D0E004C02197FE010E94E608CC35D1076C
:10010000C9F70E94C4050C94F1080C94000090E01B
:10011000FC01E458FF4F2491FC01EC55FF4F349152
:10012000FC01E057FF4FE491EE23B1F1222339F1B6
:10013000233091F038F42130A9F0223001F584B554
:100140008F7D12C0273091F02830A1F02430B9F40F
:10015000809180008F7D03C0809180008F77809395
:1001600080000DC084B58F7784BD09C08091B00038
:100170008F7703C08091B0008F7D8093B000F0E056
:10018000EE0FFF1FEE58FF4FA591B4918FB7F89473
:10019000EC913E2B3C938FBF08953FB7F89480912C
:1001A000430390914403A0914503B091460326B5C3
:1001B000A89B05C02F3F19F00196A11DB11D3FBF9F
:1001C000BA2FA92F982F8827820F911DA11DB11D2D
:1001D000BC01CD0142E0660F771F881F991F4A9529
:1001E000D1F708958F929F92AF92BF92CF92DF92F4
:1001F000EF92FF926B017C010E94CD004B015C01EC
:10020000C114D104E104F104F1F00E94CD00DC013D
:10021000CB0188199909AA09BB09883E9340A10519
:10022000B10570F321E0C21AD108E108F10888EEA7
:10023000880E83E0981EA11CB11CC114D104E104F6
:10024000F10419F7DDCFFF90EF90DF90CF90BF90D2
:10025000AF909F908F900895CF92DF92EF92FF9290
:100260000F931F93CF93DF936C017A018B01C0E052
:10027000D0E0CE15DF0589F0D8016D918D01D60152
:10028000ED91FC910190F081E02DC6010995892B3B
:1002900011F47E0102C02196ECCFC701DF91CF910E
:1002A0001F910F91FF90EF90DF90CF9008950895E8
:1002B00081E090E03091190220911802321710F479
:1002C00080E090E0919581959109089580911902BF
:1002D00090911802891730F48F5F8093190280E0A3
:1002E00090E008958FEF9FEF08958091180290E0BD
:1002F00020911902821B91090895089580E090E0F1
:10030000089585ED8093BC008091BC0084FDFCCFF6
:100310001092150208954091A801262F30E0240F75
:10032000311D21323105DCF4209115022430C9F44D
:10033000FC0180E090E0861758F43091A8012191EB
:10034000DC01AA57BE4FA30FB11D2C930196F3CF2A
:100350008091A801680F6093A80180E0089581E072
:10036000089582E00895CF92DF92EF92FF920F936B
:100370001F93CF93DF937C01262F972F8A018091C3
:10038000F101882391F0C62FD72F6E01C40ED51E20
:10039000CC15DD0571F06991D701ED91FC910190CB
:1003A000F081E02DC7010995F3CF642F822F0E94C1
:1003B0008B01C801DF91CF911F910F91FF90EF90BA
:1003C000DF90CF900895CF93DF931F92CDB7DEB724
:1003D00069832091F1012223D1F02091160220326D
:1003E00040F021E030E0FC013383228380E090E0A4
:1003F00015C080911702E82FF0E0EE50FE4F998172
:1004000090838F5F809317028093160205C061E08E
:10041000CE0101960E948B0181E090E00F90DF9168
:10042000CF910895CF93FC01C48121E02093F10185
:10043000C093120210921702109216028385682B45
:1004400087E493E00E94E30180911602813208F074
:1004500046C0909115029111FCCF92E09093150245
:1004600091E0909314029FEF9093F0011092EF01AE
:100470008093EE01A2EFB1E02EEC31E0F9019E2F66
:10048000921B981718F49D919193F9CF1092CD017A
:100490008091CD01CC0FC82BC093CD018091130268
:1004A000813061F4109213028091CD018093BB00E2
:1004B0008091BC0083FDF8CF85EC01C085EE809370
:1004C000BC00809115028230E1F38091F0018F3FF2
:1004D00031F08091F001803211F08091F0011092A2
:1004E0001702109216021092F101CF9108950F9306
:1004F0001F93CF938C01C62F0E9412026C2F646051
:10050000C8010E9412026C2F6B7FC8010E94120268
:1005100083EC90E00197F1F7CF911F910F9108952F
:10052000FF920F931F93CF93DF931F92CDB7DEB748
:100530008C01F62E962F907F692F642BC80149837A
:100540000E94770280E1F89EB00111244981642B5A
:10055000C8010F90DF91CF911F910F91FF900C94E4
:100560007702CF93DF93CDB7DEB728970FB6F89415
:10057000DEBF0FBECDBF28E0EAE0F1E0DE0111965C
:1005800001900D922A95E1F720916D03261710F442
:100590006FEF620FFE013196E60FF11DE60FF11DC0
:1005A0009081682F690F606840E085E693E02896A7
:1005B0000FB6F894DEBF0FBECDBFDF91CF910C9484
:1005C000900240E061E085E693E00E9490028BE3B8
:1005D0009FE10197F1F70895CF93DF93823028F0E0
:1005E00090916A03986090936A0380936D038BE304
:1005F0009DE00197F1F76091700385E693E00E941A
:10060000120268EE73E080E090E00E94F20063E086
:1006100085E693E00E947702CBE4D6E4CE01019711
:10062000F1F763E085E693E00E9477022197F1F706
:1006300063E085E693E00E94770283E592E001970C
:10064000F1F762E085E693E00E94770260916A0329
:10065000606240E085E693E00E94900284E080932F
:100660006B0340E06CE085E693E00E9490020E94FC
:10067000E10282E080936C0340E066E085E693E06F
:100680000E94900240E062E085E693E0DF91CF9126
:100690000C94900241E00E94900281E090E0089565
:1006A000FC01AC01405A5F4F60E070E080E090E0F8
:1006B000219131912C39AFEF3A0721F0820F931F2E
:1006C0006F5F7F4FE417F50799F76115710521F00A
:1006D0000E94BE08CB0108958FEF9FEF08959C0103
:1006E000205A3F4F4CE95FEFFC0141935193CF01FA
:1006F000E217F307C9F70895009769F0FC0101902C
:100700000020E9F73197AF01481B590BBC0185E682
:1007100093E00C942C0180E090E008950C947C030D
:100720008F929F92AF92BF92CF92DF92EF92FF9201
:100730000F931F93CF93DF93CDB7DEB7A1970FB67B
:10074000F894DEBF0FBECDBF6C01990FEE08FF0815
:10075000F7FE31C0E0916503F09166030190F081EE
:10076000E02D6DE285E693E009958C012227332781
:10077000A9012C193D094E095F0919A2CE018196E4
:100780007C019AE0892E912CA12CB12CCA01B901CF
:10079000A50194010E948D08605DF70162937F01BD
:1007A000211531054105510589F7CF010E947C03D0
:1007B000800F911F1DC0A701960119A28E010F5D28
:1007C0001F4F8AE0C82ED12CE12CF12CCA01B901AF
:1007D000A70196010E948D08605DF80162938F0168
:1007E000211531054105510589F7CF010E947C0390
:1007F000A1960FB6F894DEBF0FBECDBFDF91CF91AB
:100800001F910F91FF90EF90DF90CF90BF90AF902E
:100810009F908F9008950E94EC081F920F920FB640
:100820000F9211242F933F938F939F93AF93BF9376
:1008300080913F0390914003A0914103B091420306
:1008400030913E0323E0230F2D3720F40196A11DA4
:10085000B11D05C026E8230F0296A11DB11D2093EE
:100860003E0380933F0390934003A0934103B093D2
:1008700042038091430390914403A0914503B091BA
:1008800046030196A11DB11D809343039093440339
:10089000A0934503B0934603BF91AF919F918F9171
:1008A0003F912F910F900FBE0F901F9018951F92A0
:1008B0000F920FB60F9211242F933F934F935F9394
:1008C0006F937F938F939F93AF93BF93EF93FF9318
:1008D0008091B900887F803609F49CC068F5883221
:1008E00009F45BC090F4803109F454C038F48823D3
:1008F00009F4F6C0883009F44DC0F6C0883109F417
:100900004CC0803209F45DC0EFC0803409F468C087
:1009100048F4803309F455C0883309F0E5C080936A
:10092000F001D8C0803509F44FC0883509F45DC0A6
:10093000883409F0D9C0D6C0883909F4C7C0A8F4F2
:10094000883709F467C038F4883609F463C0803703
:1009500009F460C0C9C0883809F4B8C0803909F406
:100960005FC0803809F0C0C05BC0803B09F486C01E
:1009700038F4803A09F466C0883A09F47FC0B4C0FC
:10098000803C09F4A7C0883C09F4A4C0883B09F462
:100990008AC0AAC08091CD0110C09091EF018091D2
:1009A000EE01981770F5E091EF0181E08E0F8093D2
:1009B000EF01F0E0E253FE4F80818093BB0085ECB5
:1009C00086C08093F0018EC0E091EF0181E08E0F30
:1009D0008093EF018091BB00F0E0E253FE4F8083F3
:1009E0009091EF018091EE016EC0E091EF0181E006
:1009F0008E0F8093EF018091BB00F0E0E253FE4F39
:100A000080838091140281116DC081E08093130274
:100A100084EA61C083E0809315021092CC01CFCFAD
:100A20008091CC01803208F051C0E091CC0181E08E
:100A30008E0F8093CC018091BB00F0E0E455FE4F17
:100A40008083BDCF85EC8093BC001092150280910D
:100A5000CC01803230F4E091CC01F0E0E455FE4F5F
:100A600010826091CC0170E0E091AA01F091AB019D
:100A70008CEA91E009951092CC0136C084E0809315
:100A800015021092A9011092A801E091A601F0911F
:100A9000A70109958091A801811105C081E080938B
:100AA000A80110928601E091A90181E08E0F809348
:100AB000A901F0E0EA57FE4F80818093BB0090913E
:100AC000A9018091A801981708F479CF85E880934F
:100AD000BC000AC085EC8093BC001092150204C0D3
:100AE0001092F0010E948101FF91EF91BF91AF91AF
:100AF0009F918F917F916F915F914F913F912F9136
:100B00000F900FBE0F901F901895E7E4F3E013824B
:100B1000128288EE93E0A0E0B0E084839583A68300
:100B2000B78386E191E091838083E5E6F3E0138269
:100B3000128288E291E0918380838FE3848380E155
:100B4000818782E082871386A3E5B3E015968C93B4
:100B5000159786E116968C931697E6EAF0E0E491F5
:100B60001796EC931797E2E9F0E0E4911896EC936E
:100B7000189740E85EE360E070E01D964D935D934A
:100B80006D937C9350970895789484B5826084BD6A
:100B900084B5816084BD85B5826085BD85B5816081
:100BA00085BD80916E00816080936E0010928100FF
:100BB00080918100826080938100809181008160BA
:100BC000809381008091800081608093800080917B
:100BD000B10084608093B1008091B0008160809307
:100BE000B00080917A00846080937A0080917A00CE
:100BF000826080937A0080917A00816080937A008D
:100C000080917A00806880937A001092C1001092DF
:100C100019021092180210921702109216021092E6
:100C2000150281E0809314021092130282E10E9467
:100C3000870083E10E9487008091B9008E7F8093B6
:100C4000B9008091B9008D7F8093B90088E48093CA
:100C5000B80085E48093BC0010926A0380916F0312
:100C60000E94EC0282E00E94EC0288E08093700314
:100C700060E085E693E00E9412020E94E10260E0DB
:100C800080E00E94B10280E391E00E948E0361E067
:100C900080E00E94B1028FE391E00E948E03809178
:100CA000580390E0FC01EC55FF4F2491FC01E05704
:100CB000FF4F84918823C1F090E0880F991FFC01B9
:100CC000E859FF4FC591D491FC01EE58FF4FA59113
:100CD000B4919FB7F8943881822F809583238883BD
:100CE000EC91E22BEC939FBF80E398EFAFEFBFEF67
:100CF00080935C0390935D03A0935E03B0935F03C6
:100D000068EE73E080E090E00E94F20061E080E035
:100D10000E94B1028AE491E00E948E0368EE73E0C3
:100D200080E090E00E94F20061E080E00E94B10269
:100D300089E591E00E948E038AE792E00E946F03AA
:100D400068EE73E080E090E00E94F20061E080E0F5
:100D50000E94B10287E691E00E948E038AE192E050
:100D60000E946F0368EE73E080E090E00E94F20062
:100D700061E080E00E94B10285E791E00E948E036D
:100D80008AED92E00E946F0310E43DE6C32ED12C61
:100D9000E12CF12C43E6442E512C612C712C58E0AF
:100DA000252E57E0352E80913C0390913D038830ED
:100DB00027E0920731F0009721F083709927892B63
:100DC00011F40E94E10210937C0080917A0080640B
:100DD00080937A0080917A0086FDFCCFC0917800E4
:100DE00080917900D0E0D82B60E080E00E94B102D1
:100DF000CE010E94900380913C0390913D03883086
:100E000037E0930711F0892B91F4E0913A03F091C8
:100E10003B03EE0FFF1FE652FD4FD183C0838AEDE7
:100E200092E00E945003909305018093040161E0D9
:100E300080E00E94B10280910401909105010E941E
:100E400090030E944D08A70196010E945B084B0188
:100E50005C012AE0821A9108A108B10860E084E0F0
:100E60000E94B102C4010E94900380913C039091C2
:100E70003D03883037E0930711F0892B91F4E0911E
:100E80003A03F0913B03EE0FFF1FE658FD4F9182AE
:100E900080828AE792E00E9450039093030180933E
:100EA000020161E084E00E94B10280910201909110
:100EB00003010E9490030E944D08A30192010E9429
:100EC0005B084B015C0160E087E00E94B102C40155
:100ED0000E94900380913C0390913D03883027E06D
:100EE000920711F0892B91F4E0913A03F0913B03C2
:100EF000EE0FFF1FE65EFD4F918280828AE192E055
:100F00000E945003909301018093000161E087E00B
:100F10000E94B10280910001909101010E94900312
:100F200060E08AE00E94B10280913C0390913D0311
:100F30009101281B390BC9010E94900380913A034B
:100F400090913B038033910534F4019690933B03D9
:100F500080933A0304C010923B0310923A038091AD
:100F60003C0390913D03883037E0930729F41092B9
:100F70003D0310923C0305C0019690933D0380937E
:100F80003C0360E083E00E94B10283E891E00E94AC
:100F90008E0360E086E00E94B10283E891E00E9447
:100FA0008E0360E089E00E94B10283E891E00E9434
:100FB0008E0361E083E00E94B10283E891E00E9429
:100FC0008E0361E086E00E94B10283E891E00E9416
:100FD0008E0361E089E00E94B10283E891E00E9403
:100FE0008E0368EE73E080E090E00E94F20080E003
:100FF00090E0892B09F4D7CE0E940000D4CE8F92C6
:101000009F92AF92BF92CF92DF92EF92FF92CF93D7
:10101000DF93EC01688179818A819B81611571057B
:101020008105910521F464E279ED8BE597E02DE1EE
:1010300033EF41E050E00E945B0849015A019B01F7
:10104000AC01A7EAB1E40E947A086B017C01ACEE26
:10105000B4EFA50194010E948808DC01CB018C0D3E
:101060009D1DAE1DBF1DB7FF03C00197A109B0486C
:1010700088839983AA83BB83BC01CD019F77DF91CD
:10108000CF91FF90EF90DF90CF90BF90AF909F9067
:101090008F9008950E94FF07089586E091E00E94D6
:1010A000FF0708956093060170930701809308017C
:1010B000909309010895052E97FB1EF400940E9459
:1010C000720857FD07D00E948D0807FC03D04EF42C
:1010D0000C94720850954095309521953F4F4F4F95
:1010E0005F4F089590958095709561957F4F8F4FD4
:1010F0009F4F08950E94AF08A59F900DB49F900D3B
:10110000A49F800D911D11240895B7FF0C947A08B7
:101110000E947A08821B930B0895A1E21A2EAA1B43
:10112000BB1BFD010DC0AA1FBB1FEE1FFF1FA21797
:10113000B307E407F50720F0A21BB30BE40BF50B94
:10114000661F771F881F991F1A9469F7609570951D
:10115000809590959B01AC01BD01CF010895A29FA0
:10116000B001B39FC001A39F700D811D1124911D7B
:10117000B29F700D811D1124911D089597FB072EBC
:1011800016F4009407D077FD09D00E94D20807FC1E
:1011900005D03EF4909581959F4F08957095619587
:1011A0007F4F0895AA1BBB1B51E107C0AA1FBB1F9D
:1011B000A617B70710F0A61BB70B881F991F5A95E3
:1011C000A9F780959095BC01CD010895EE0FFF1F02
:1011D0000590F491E02D099481E090E0F8940C944E
:0611E000F108F894FFCFB6
:1011E600FFFFFFFFFFFF01000000000040001400AA
:1011F600540000000000E301B3017E0157017501B0
:1012060066015801000000004A032C017E017D01A1
:1012160054484C202D207374617274696E6700699E
:101226006E697420444854323200696E69742061D4
:1012360072726179732E2E2E00696E697420746D38
:10124600702E2061727200696E69742068756D2E49
:101256002061727200696E6974206C67682E206165
:061266007272007C000022
:00000001FF
