:100000000C9458000C9480000C9480000C94800098
:100010000C9480000C9480000C9480000C94800060
:100020000C9480000C9480000C9480000C94800050
:100030000C9480000C9480000C9480000C94800040
:100040000C9455040C9480000C94C5040C949F04EB
:100050000C9480000C9480000C9480000C94800020
:100060000C94F7040C948000000000002500280088
:100070002B00040404040404040402020202020229
:10008000030303030303010204081020408001025C
:1000900004081020010204081020000000080002DB
:1000A0000100000304070000000000000000250616
:1000B00011241FBECFEFD8E0DEBFCDBF11E0A0E01E
:1000C000B1E0E8ECFFE002C005900D92AC34B1075E
:1000D000D9F722E0ACE4B1E001C01D92A03AB2072A
:1000E000E1F710E0C8E5D0E004C02197FE010E94CE
:1000F000D707C735D107C9F70E946D060C94E207F0
:100100000C94000090E0FC01E656FF4F2491FC01A6
:10011000EA57FF4F3491FC01EE58FF4FE491EE2374
:10012000B1F1222339F1233091F038F42130A9F0D4
:10013000223001F584B58F7D12C0273091F0283030
:10014000A1F02430B9F4809180008F7D03C08091AC
:1001500080008F77809380000DC084B58F7784BD39
:1001600009C08091B0008F7703C08091B0008F7D6F
:100170008093B000F0E0EE0FFF1FE859FF4FA5910C
:10018000B4918FB7F894EC913E2B3C938FBF0895B8
:100190003FB7F8948091E7019091E801A091E901BF
:1001A000B091EA0126B5A89B05C02F3F19F0019632
:1001B000A11DB11D3FBFBA2FA92F982F8827820FED
:1001C000911DA11DB11DBC01CD0142E0660F771F3D
:1001D000881F991F4A95D1F708958F929F92AF92E9
:1001E000BF92CF92DF92EF92FF920E94C8004B0124
:1001F0005C0188EEC82E83E0D82EE12CF12C0E9401
:10020000C800DC01CB0188199909AA09BB09883EFD
:100210009340A105B10558F021E0C21AD108E108C8
:10022000F10888EE880E83E0981EA11CB11CC11451
:10023000D104E104F10419F7FF90EF90DF90CF9023
:10024000BF90AF909F908F900895CF92DF92EF92E2
:10025000FF920F931F93CF93DF936C017A018B0171
:10026000C0E0D0E0CE15DF0589F0D8016D918D0199
:10027000D601ED91FC910190F081E02DC601099528
:10028000892B11F47E0102C02196ECCFC701DF91CA
:10029000CF911F910F91FF90EF90DF90CF90089535
:1002A000FC01538D448D252F30E0842F90E0821B7C
:1002B000930B541710F0CF96089501970895FC0101
:1002C000918D828D981761F0828DDF01A80FB11D8D
:1002D0005D968C91928D9F5F9F73928F90E00895B1
:1002E0008FEF9FEF0895FC01918D828D981731F06B
:1002F000828DE80FF11D858D90E008958FEF9FEFBF
:100300000895FC01918D228D892F90E0805C9F4F94
:10031000821B91098F73992708958BEE91E00E94BB
:10032000810121E0892B09F420E0822F0895FC014E
:10033000848DDF01A80FB11DA35ABF4F2C91848D6E
:1003400090E001968F739927848FA689B7892C93A3
:10035000A089B1898C9180648C93938D848D98133E
:1003600006C00288F389E02D80818F7D8083089507
:10037000EF92FF920F931F93CF93DF93EC0181E0F5
:10038000888F9B8D8C8D981305C0E889F9898081B1
:1003900085FD24C0F62E0B8D10E00F5F1F4F0F73ED
:1003A0001127E02E8C8DE8120CC00FB607FCFACF97
:1003B000E889F989808185FFF5CFCE010E949701F8
:1003C000F1CF8B8DFE01E80FF11DE35AFF4FF08254
:1003D0000B8FEA89FB898081806207C0EE89FF89E3
:1003E0006083E889F98980818064808381E090E07E
:1003F000DF91CF911F910F91FF90EF900895CF93D0
:10040000DF93EC01888D8823C9F0EA89FB8980811C
:1004100085FD05C0A889B9898C9186FD0FC00FB6EE
:1004200007FCF5CF808185FFF2CFA889B9898C912F
:1004300085FFEDCFCE010E949701E7CFDF91CF91ED
:10044000089580E090E0892B29F00E948D018111B0
:100450000C9400000895089581E090E03091DF0150
:100460002091DE01321710F480E090E091958195A3
:10047000910908958091DF019091DE01891730F490
:100480008F5F8093DF0180E090E008958FEF9FEF12
:1004900008958091DE0190E02091DF01821B910997
:1004A0000895089580E090E0089585ED8093BC0064
:1004B0008091BC0084FDFCCF1092DB010895409137
:1004C0006E01262F30E0240F311D21323105DCF47E
:1004D0002091DB012430C9F4FC0180E090E0861714
:1004E00058F430916E012191DC01A45BBE4FA30F43
:1004F000B11D2C930196F3CF80916E01680F60932C
:100500006E0180E0089581E0089582E00895CF9221
:10051000DF92EF92FF920F931F93CF93DF937C01B3
:10052000262F972F8A018091B701882391F0C62F3B
:10053000D72F6E01C40ED51ECC15DD0571F0699163
:10054000D701ED91FC910190F081E02DC701099553
:10055000F3CF642F822F0E945F02C801DF91CF91F9
:100560001F910F91FF90EF90DF90CF900895CF9360
:10057000DF931F92CDB7DEB769832091B7012223A5
:10058000D1F02091DC01203240F021E030E0FC018C
:100590003383228380E090E015C08091DD01E82F55
:1005A000F0E0E854FE4F998190838F5F8093DD01E6
:1005B0008093DC0105C061E0CE0101960E945F02DC
:1005C00081E090E00F90DF91CF910895CF93FC01EF
:1005D000C48121E02093B701C093D8011092DD01BE
:1005E0001092DC018385682B88E892E00E94B702B4
:1005F0008091DC01813208F046C09091DB019111BD
:10060000FCCF92E09093DB0191E09093DA019FEFB1
:100610009093B6011092B5018093B401A8EBB1E0BC
:1006200024E931E0F9019E2F921B981718F49D914F
:100630009193F9CF1092930180919301CC0FC82B25
:10064000C09393018091D901813061F41092D90156
:10065000809193018093BB008091BC0083FDF8CF13
:1006600085EC01C085EE8093BC008091DB01823077
:10067000E1F38091B6018F3F31F08091B601803275
:1006800011F08091B6011092DD011092DC01109200
:10069000B701CF9108950F931F93CF938C01C62F6D
:1006A0000E94E6026C2F6460C8010E94E6026C2F73
:1006B0006B7FC8010E94E60283EC90E00197F1F79E
:1006C000CF911F910F910895FF920F931F93CF9396
:1006D000DF931F92CDB7DEB78C01F62E962F907F59
:1006E000692F642BC80149830E944B0380E1F89E67
:1006F000B00111244981642BC8010F90DF91CF9183
:100700001F910F91FF900C944B03CF93DF93CDB7C4
:10071000DEB728970FB6F894DEBF0FBECDBF28E036
:10072000E0E0F1E0DE01119601900D922A95E1F7EB
:1007300020919C02261710F46FEF620FFE01319694
:10074000E60FF11DE60FF11D9081682F690F6068BB
:1007500040E084E992E028960FB6F894DEBF0FBE21
:10076000CDBFDF91CF910C94640340E061E084E958
:1007700092E00E9464038BE39FE10197F1F70895F3
:1007800041E00E94640381E090E00895009769F0E1
:10079000FC0101900020E9F73197AF01481B590B8C
:1007A000BC0184E992E00C94250180E090E008957A
:1007B0008F929F92AF92BF92CF92DF92EF92FF9271
:1007C0000F931F93CF93DF93CDB7DEB7A1970FB6EB
:1007D000F894DEBF0FBECDBF6C01990FEE08FF0885
:1007E000F7FE31C0E0919402F09195020190F08102
:1007F000E02D6DE284E992E009958C0122273327F0
:10080000A9012C193D094E095F0919A2CE01819653
:100810007C019AE0892E912CA12CB12CCA01B9013E
:10082000A50194010E94B507605DF70162937F0105
:10083000211531054105510589F7CF010E94C603F5
:10084000800F911F1DC0A701960119A28E010F5D97
:100850001F4F8AE0C82ED12CE12CF12CCA01B9011E
:10086000A70196010E94B507605DF80162938F01B0
:10087000211531054105510589F7CF010E94C603B5
:10088000A1960FB6F894DEBF0FBECDBFDF91CF911A
:100890001F910F91FF90EF90DF90CF90BF90AF909E
:1008A0009F908F9008950E94DD071F920F920FB6C0
:1008B0000F9211242F933F938F939F93AF93BF93E6
:1008C0008091E3019091E401A091E501B091E601EE
:1008D0003091E20123E0230F2D3720F40196A11D72
:1008E000B11D05C026E8230F0296A11DB11D20935E
:1008F000E2018093E3019093E401A093E501B093BA
:10090000E6018091E7019091E801A091E901B091A1
:10091000EA010196A11DB11D8093E7019093E801C2
:10092000A093E901B093EA01BF91AF919F918F919C
:100930003F912F910F900FBE0F901F9018951F920F
:100940000F920FB60F9211242F933F934F935F9303
:100950006F937F938F939F93AF93BF93EF93FF9387
:100960008BEE91E00E949701FF91EF91BF91AF91C3
:100970009F918F917F916F915F914F913F912F91B7
:100980000F900FBE0F901F9018951F920F920FB6E9
:100990000F9211242F938F939F93EF93FF93E091E6
:1009A000FB01F091FC018081E0910102F0910202D3
:1009B00082FD12C09081809104028F5F8F7320911D
:1009C0000502821751F0E0910402F0E0E551FE4F7C
:1009D000958F8093040201C08081FF91EF919F91D8
:1009E0008F912F910F900FBE0F901F9018951F920F
:1009F0000F920FB60F9211242F933F934F935F9353
:100A00006F937F938F939F93AF93BF93EF93FF93D6
:100A10008091B900887F803609F49CC068F58832DF
:100A200009F45BC090F4803109F454C038F4882391
:100A300009F4F6C0883009F44DC0F6C0883109F4D5
:100A40004CC0803209F45DC0EFC0803409F468C046
:100A500048F4803309F455C0883309F0E5C0809329
:100A6000B601D8C0803509F44FC0883509F45DC09F
:100A7000883409F0D9C0D6C0883909F4C7C0A8F4B1
:100A8000883709F467C038F4883609F463C08037C2
:100A900009F460C0C9C0883809F4B8C0803909F4C5
:100AA0005FC0803809F0C0C05BC0803B09F486C0DD
:100AB00038F4803A09F466C0883A09F47FC0B4C0BB
:100AC000803C09F4A7C0883C09F4A4C0883B09F421
:100AD0008AC0AAC08091930110C09091B501809105
:100AE000B401981770F5E091B50181E08E0F809305
:100AF000B501F0E0EC56FE4F80818093BB0085ECA1
:100B000086C08093B6018EC0E091B50181E08E0F62
:100B10008093B5018091BB00F0E0EC56FE4F8083DE
:100B20009091B5018091B4016EC0E091B50181E072
:100B30008E0F8093B5018091BB00F0E0EC56FE4F24
:100B400080838091DA0181116DC081E08093D901A9
:100B500084EA61C083E08093DB0110929201CFCFE1
:100B600080919201803208F051C0E091920181E0C1
:100B70008E0F809392018091BB00F0E0EE58FE4F03
:100B80008083BDCF85EC8093BC001092DB01809107
:100B90009201803230F4E0919201F0E0EE58FE4F85
:100BA00010826091920170E0E0917001F09171010A
:100BB00082E791E009951092920136C084E080931B
:100BC000DB0110926F0110926E01E0916C01F091C7
:100BD0006D01099580916E01811105C081E08093BE
:100BE0006E0110924C01E0916F0181E08E0F8093B5
:100BF0006F01F0E0E45BFE4F80818093BB00909139
:100C00006F0180916E01981708F479CF85E8809381
:100C1000BC000AC085EC8093BC001092DB0104C0CC
:100C20001092B6010E945502FF91EF91BF91AF91D2
:100C30009F918F917F916F915F914F913F912F91F4
:100C40000F900FBE0F901F901895EBEEF1E01382FE
:100C5000128288EE93E0A0E0B0E084839583A683BF
:100C6000B7832CE031E03183208325EC30E03587F9
:100C7000248724EC30E03787268720EC30E0318B66
:100C8000208B21EC30E0338B228B22EC30E0358B53
:100C9000248B26EC30E0378B268B118E128E138E30
:100CA000148EE8E8F2E01382128284839583A6838F
:100CB000B7838EE191E091838083E4E9F2E01382CF
:100CC000128280E391E0918380838FE3848380E1CB
:100CD000818782E0828713860895789484B5826044
:100CE00084BD84B5816084BD85B5826085BD85B5D0
:100CF000816085BD80916E00816080936E0010924E
:100D000081008091810082608093810080918100C8
:100D10008160809381008091800081608093800059
:100D20008091B10084608093B1008091B0008160B7
:100D30008093B00080917A00846080937A008091E3
:100D40007A00826080937A0080917A00816080933B
:100D50007A0080917A00806880937A001092C100B6
:100D6000E091FB01F091FC0182E08083E091F701CA
:100D7000F091F8011082E091F901F091FA0180E11F
:100D8000808310920302E091FF01F091000286E05F
:100D90008083E091FD01F091FE018081806180837C
:100DA000E091FD01F091FE01808188608083E091F7
:100DB000FD01F091FE01808180688083E091FD015A
:100DC000F091FE0180818F7D80831092DF0110926F
:100DD000DE011092DD011092DC011092DB0181E056
:100DE0008093DA011092D90182E10E94820083E1AE
:100DF0000E9482008091B9008E7F8093B90080911B
:100E0000B9008D7F8093B90088E48093B80085E4B1
:100E10008093BC001092990280919E02823018F05B
:100E200098E09093990280939C028BE39DE0019758
:100E3000F1F760919F0284E992E00E94E6020E942D
:100E4000ED0063E084E992E00E944B03CBE4D6E43A
:100E5000CE010197F1F763E084E992E00E944B0331
:100E60002197F1F763E084E992E00E944B0383E568
:100E700092E00197F1F762E084E992E00E944B036F
:100E800060919902606240E084E992E00E9464030C
:100E900084E080939A0240E06CE084E992E00E9452
:100EA00064030E94B50382E080939B0240E066E009
:100EB00084E992E00E94640340E062E084E992E009
:100EC0000E94640388E080939F0260E084E992E0DE
:100ED0000E94E6020E94B50360E080E00E94850364
:100EE00088E391E00E94C60361E080E00E948503F0
:100EF00081E491E00E94C60310E410937C0080918D
:100F00007A00806480937A0080917A0086FDFCCF1D
:100F1000C091780080917900D0E0D82B0E94ED003C
:100F20000E94B50360E080E00E9485038091E001AB
:100F30009091E1019C012F5F3F4F3093E10120939D
:100F4000E0010E94D80361E080E00E94850385E40F
:100F500091E00E94C60361E088E00E948503CE0113
:100F60000E94D8030E942102C8CFA1E21A2EAA1B18
:100F7000BB1BFD010DC0AA1FBB1FEE1FFF1FA21749
:100F8000B307E407F50720F0A21BB30BE40BF50B46
:100F9000661F771F881F991F1A9469F760957095CF
:100FA000809590959B01AC01BD01CF010895EE0F96
:100FB000FF1F0590F491E02D099481E090E0F894F2
:080FC0000C94E207F894FFCF46
:100FC800000040001400540000000000B801250192
:100FD8005001FF0181015F01730100000000B702A9
:100FE800870252022B0249023A022C02000000003A
:100FF800C00325015202510274656D705F68756DFA
:0C100800002E2E2E006C6967687420001A
:00000001FF
